{
  "_format": "hh-sol-artifact-1",
  "contractName": "Payment",
  "sourceName": "contracts/TestTransaction.sol",
  "abi": [
    {
      "inputs": [
        {
          "internalType": "address",
          "name": "",
          "type": "address"
        }
      ],
      "name": "balances",
      "outputs": [
        {
          "internalType": "uint256",
          "name": "",
          "type": "uint256"
        }
      ],
      "stateMutability": "view",
      "type": "function"
    },
    {
      "inputs": [],
      "name": "deposit",
      "outputs": [],
      "stateMutability": "payable",
      "type": "function"
    },
    {
      "inputs": [
        {
          "internalType": "address payable",
          "name": "to",
          "type": "address"
        },
        {
          "internalType": "uint256",
          "name": "amount",
          "type": "uint256"
        }
      ],
      "name": "sendTo",
      "outputs": [],
      "stateMutability": "nonpayable",
      "type": "function"
    },
    {
      "inputs": [
        {
          "internalType": "uint256",
          "name": "amount",
          "type": "uint256"
        }
      ],
      "name": "withdraw",
      "outputs": [],
      "stateMutability": "nonpayable",
      "type": "function"
    }
  ],
  "bytecode": "0x608060405234801561001057600080fd5b5061089f806100206000396000f3fe60806040526004361061003f5760003560e01c806327e235e3146100445780632e1a7d4d146100815780639e1a00aa146100aa578063d0e30db0146100d3575b600080fd5b34801561005057600080fd5b5061006b600480360381019061006691906104ff565b6100dd565b6040516100789190610545565b60405180910390f35b34801561008d57600080fd5b506100a860048036038101906100a3919061058c565b6100f5565b005b3480156100b657600080fd5b506100d160048036038101906100cc91906105f7565b61027b565b005b6100db610402565b005b60006020528060005260406000206000915090505481565b806000803373ffffffffffffffffffffffffffffffffffffffff1673ffffffffffffffffffffffffffffffffffffffff168152602001908152602001600020541015610176576040517f08c379a000000000000000000000000000000000000000000000000000000000815260040161016d90610694565b60405180910390fd5b806000803373ffffffffffffffffffffffffffffffffffffffff1673ffffffffffffffffffffffffffffffffffffffff16815260200190815260200160002060008282546101c491906106e3565b9250508190555060003373ffffffffffffffffffffffffffffffffffffffff16826040516101f190610748565b60006040518083038185875af1925050503d806000811461022e576040519150601f19603f3d011682016040523d82523d6000602084013e610233565b606091505b5050905080610277576040517f08c379a000000000000000000000000000000000000000000000000000000000815260040161026e906107a9565b60405180910390fd5b5050565b806000803373ffffffffffffffffffffffffffffffffffffffff1673ffffffffffffffffffffffffffffffffffffffff1681526020019081526020016000205410156102fc576040517f08c379a00000000000000000000000000000000000000000000000000000000081526004016102f390610694565b60405180910390fd5b806000803373ffffffffffffffffffffffffffffffffffffffff1673ffffffffffffffffffffffffffffffffffffffff168152602001908152602001600020600082825461034a91906106e3565b9250508190555060008273ffffffffffffffffffffffffffffffffffffffff168260405161037790610748565b60006040518083038185875af1925050503d80600081146103b4576040519150601f19603f3d011682016040523d82523d6000602084013e6103b9565b606091505b50509050806103fd576040517f08c379a00000000000000000000000000000000000000000000000000000000081526004016103f4906107a9565b60405180910390fd5b505050565b60003411610445576040517f08c379a000000000000000000000000000000000000000000000000000000000815260040161043c90610815565b60405180910390fd5b346000803373ffffffffffffffffffffffffffffffffffffffff1673ffffffffffffffffffffffffffffffffffffffff16815260200190815260200160002060008282546104939190610835565b92505081905550565b600080fd5b600073ffffffffffffffffffffffffffffffffffffffff82169050919050565b60006104cc826104a1565b9050919050565b6104dc816104c1565b81146104e757600080fd5b50565b6000813590506104f9816104d3565b92915050565b6000602082840312156105155761051461049c565b5b6000610523848285016104ea565b91505092915050565b6000819050919050565b61053f8161052c565b82525050565b600060208201905061055a6000830184610536565b92915050565b6105698161052c565b811461057457600080fd5b50565b60008135905061058681610560565b92915050565b6000602082840312156105a2576105a161049c565b5b60006105b084828501610577565b91505092915050565b60006105c4826104a1565b9050919050565b6105d4816105b9565b81146105df57600080fd5b50565b6000813590506105f1816105cb565b92915050565b6000806040838503121561060e5761060d61049c565b5b600061061c858286016105e2565b925050602061062d85828601610577565b9150509250929050565b600082825260208201905092915050565b7f496e73756666696369656e742062616c616e6365000000000000000000000000600082015250565b600061067e601483610637565b915061068982610648565b602082019050919050565b600060208201905081810360008301526106ad81610671565b9050919050565b7f4e487b7100000000000000000000000000000000000000000000000000000000600052601160045260246000fd5b60006106ee8261052c565b91506106f98361052c565b9250828203905081811115610711576107106106b4565b5b92915050565b600081905092915050565b50565b6000610732600083610717565b915061073d82610722565b600082019050919050565b600061075382610725565b9150819050919050565b7f5472616e73666572206661696c65640000000000000000000000000000000000600082015250565b6000610793600f83610637565b915061079e8261075d565b602082019050919050565b600060208201905081810360008301526107c281610786565b9050919050565b7f53656e6420736f6d652045544800000000000000000000000000000000000000600082015250565b60006107ff600d83610637565b915061080a826107c9565b602082019050919050565b6000602082019050818103600083015261082e816107f2565b9050919050565b60006108408261052c565b915061084b8361052c565b9250828201905080821115610863576108626106b4565b5b9291505056fea2646970667358221220b7aa60d3c15a2450e2ddf57c50f6abab36bfe1caa29432c1b2df2f6a78460a6964736f6c63430008180033",
  "linkReferences": {},
  "deployedLinkReferences": {}
}