{
  "_format": "hh-sol-artifact-1",
  "contractName": "Math",
  "sourceName": "contracts/TestMath.sol",
  "abi": [
    {
      "inputs": [
        {
          "internalType": "uint256",
          "name": "number1",
          "type": "uint256"
        },
        {
          "internalType": "uint256",
          "name": "number2",
          "type": "uint256"
        }
      ],
      "name": "add",
      "outputs": [
        {
          "internalType": "uint256",
          "name": "",
          "type": "uint256"
        }
      ],
      "stateMutability": "nonpayable",
      "type": "function"
    },
    {
      "inputs": [
        {
          "internalType": "uint256",
          "name": "number1",
          "type": "uint256"
        },
        {
          "internalType": "uint256",
          "name": "number2",
          "type": "uint256"
        }
      ],
      "name": "div",
      "outputs": [
        {
          "internalType": "uint256",
          "name": "",
          "type": "uint256"
        }
      ],
      "stateMutability": "nonpayable",
      "type": "function"
    },
    {
      "inputs": [],
      "name": "getSummary",
      "outputs": [
        {
          "internalType": "uint256",
          "name": "",
          "type": "uint256"
        }
      ],
      "stateMutability": "view",
      "type": "function"
    },
    {
      "inputs": [
        {
          "internalType": "uint256",
          "name": "number1",
          "type": "uint256"
        },
        {
          "internalType": "uint256",
          "name": "number2",
          "type": "uint256"
        }
      ],
      "name": "min",
      "outputs": [
        {
          "internalType": "uint256",
          "name": "",
          "type": "uint256"
        }
      ],
      "stateMutability": "nonpayable",
      "type": "function"
    },
    {
      "inputs": [
        {
          "internalType": "uint256",
          "name": "number1",
          "type": "uint256"
        },
        {
          "internalType": "uint256",
          "name": "number2",
          "type": "uint256"
        }
      ],
      "name": "mul",
      "outputs": [
        {
          "internalType": "uint256",
          "name": "",
          "type": "uint256"
        }
      ],
      "stateMutability": "nonpayable",
      "type": "function"
    }
  ],
  "bytecode": "0x608060405234801561001057600080fd5b50610407806100206000396000f3fe608060405234801561001057600080fd5b50600436106100575760003560e01c80634051ddac1461005c578063771602f71461007a5780637ae2b5c7146100aa578063a391c15b146100da578063c8a4ac9c1461010a575b600080fd5b61006461013a565b604051610071919061020c565b60405180910390f35b610094600480360381019061008f9190610258565b610143565b6040516100a1919061020c565b60405180910390f35b6100c460048036038101906100bf9190610258565b61016f565b6040516100d1919061020c565b60405180910390f35b6100f460048036038101906100ef9190610258565b61019b565b604051610101919061020c565b60405180910390f35b610124600480360381019061011f9190610258565b6101c7565b604051610131919061020c565b60405180910390f35b60008054905090565b6000818361015191906102c7565b60008082825461016191906102c7565b925050819055905092915050565b6000818361017d91906102fb565b60008082825461018d91906102c7565b925050819055905092915050565b600081836101a9919061035e565b6000808282546101b991906102c7565b925050819055905092915050565b600081836101d5919061038f565b6000808282546101e591906102c7565b925050819055905092915050565b6000819050919050565b610206816101f3565b82525050565b600060208201905061022160008301846101fd565b92915050565b600080fd5b610235816101f3565b811461024057600080fd5b50565b6000813590506102528161022c565b92915050565b6000806040838503121561026f5761026e610227565b5b600061027d85828601610243565b925050602061028e85828601610243565b9150509250929050565b7f4e487b7100000000000000000000000000000000000000000000000000000000600052601160045260246000fd5b60006102d2826101f3565b91506102dd836101f3565b92508282019050808211156102f5576102f4610298565b5b92915050565b6000610306826101f3565b9150610311836101f3565b925082820390508181111561032957610328610298565b5b92915050565b7f4e487b7100000000000000000000000000000000000000000000000000000000600052601260045260246000fd5b6000610369826101f3565b9150610374836101f3565b9250826103845761038361032f565b5b828204905092915050565b600061039a826101f3565b91506103a5836101f3565b92508282026103b3816101f3565b915082820484148315176103ca576103c9610298565b5b509291505056fea26469706673582212202b14d085dc8e75345baa19e2a2862068f33a7e54d07f00886fc57ee55ccf93be64736f6c63430008180033",
  "linkReferences": {},
  "deployedLinkReferences": {}
}