{
  "_format": "hh-sol-artifact-1",
  "contractName": "Marketplace",
  "sourceName": "contracts/Example.sol",
  "abi": [
    {
      "inputs": [
        {
          "internalType": "address",
          "name": "_arbiter",
          "type": "address"
        },
        {
          "internalType": "uint256",
          "name": "_platformFee",
          "type": "uint256"
        }
      ],
      "stateMutability": "nonpayable",
      "type": "constructor"
    },
    {
      "inputs": [],
      "name": "AlreadyDisputed",
      "type": "error"
    },
    {
      "inputs": [],
      "name": "InsufficientDeposit",
      "type": "error"
    },
    {
      "inputs": [],
      "name": "InsufficientPayment",
      "type": "error"
    },
    {
      "inputs": [],
      "name": "ItemAlreadyListed",
      "type": "error"
    },
    {
      "inputs": [],
      "name": "ItemNotListed",
      "type": "error"
    },
    {
      "inputs": [],
      "name": "NotBuyer",
      "type": "error"
    },
    {
      "inputs": [],
      "name": "NotDisputed",
      "type": "error"
    },
    {
      "inputs": [],
      "name": "NotOwner",
      "type": "error"
    },
    {
      "inputs": [],
      "name": "NotSeller",
      "type": "error"
    },
    {
      "inputs": [],
      "name": "OnlyArbiter",
      "type": "error"
    },
    {
      "inputs": [],
      "name": "TransferFailed",
      "type": "error"
    },
    {
      "anonymous": false,
      "inputs": [
        {
          "indexed": true,
          "internalType": "uint256",
          "name": "itemId",
          "type": "uint256"
        },
        {
          "indexed": true,
          "internalType": "address",
          "name": "by",
          "type": "address"
        }
      ],
      "name": "DisputeOpened",
      "type": "event"
    },
    {
      "anonymous": false,
      "inputs": [
        {
          "indexed": true,
          "internalType": "uint256",
          "name": "itemId",
          "type": "uint256"
        },
        {
          "indexed": false,
          "internalType": "bool",
          "name": "buyerWon",
          "type": "bool"
        }
      ],
      "name": "DisputeResolved",
      "type": "event"
    },
    {
      "anonymous": false,
      "inputs": [
        {
          "indexed": true,
          "internalType": "address",
          "name": "user",
          "type": "address"
        },
        {
          "indexed": false,
          "internalType": "uint256",
          "name": "amount",
          "type": "uint256"
        }
      ],
      "name": "FundsWithdrawn",
      "type": "event"
    },
    {
      "anonymous": false,
      "inputs": [
        {
          "indexed": true,
          "internalType": "uint256",
          "name": "itemId",
          "type": "uint256"
        },
        {
          "indexed": true,
          "internalType": "address",
          "name": "buyer",
          "type": "address"
        }
      ],
      "name": "ItemDelivered",
      "type": "event"
    },
    {
      "anonymous": false,
      "inputs": [
        {
          "indexed": true,
          "internalType": "uint256",
          "name": "itemId",
          "type": "uint256"
        },
        {
          "indexed": true,
          "internalType": "address",
          "name": "seller",
          "type": "address"
        },
        {
          "indexed": false,
          "internalType": "uint256",
          "name": "price",
          "type": "uint256"
        },
        {
          "indexed": false,
          "internalType": "uint256",
          "name": "deposit",
          "type": "uint256"
        }
      ],
      "name": "ItemListed",
      "type": "event"
    },
    {
      "anonymous": false,
      "inputs": [
        {
          "indexed": true,
          "internalType": "uint256",
          "name": "itemId",
          "type": "uint256"
        },
        {
          "indexed": true,
          "internalType": "address",
          "name": "buyer",
          "type": "address"
        }
      ],
      "name": "ItemPurchased",
      "type": "event"
    },
    {
      "inputs": [],
      "name": "arbiter",
      "outputs": [
        {
          "internalType": "address",
          "name": "",
          "type": "address"
        }
      ],
      "stateMutability": "view",
      "type": "function"
    },
    {
      "inputs": [
        {
          "internalType": "uint256",
          "name": "itemId",
          "type": "uint256"
        }
      ],
      "name": "cancelListing",
      "outputs": [],
      "stateMutability": "nonpayable",
      "type": "function"
    },
    {
      "inputs": [
        {
          "internalType": "uint256",
          "name": "itemId",
          "type": "uint256"
        }
      ],
      "name": "confirmDelivery",
      "outputs": [],
      "stateMutability": "nonpayable",
      "type": "function"
    },
    {
      "inputs": [
        {
          "internalType": "uint256",
          "name": "itemId",
          "type": "uint256"
        }
      ],
      "name": "getItem",
      "outputs": [
        {
          "components": [
            {
              "internalType": "uint256",
              "name": "id",
              "type": "uint256"
            },
            {
              "internalType": "address payable",
              "name": "seller",
              "type": "address"
            },
            {
              "internalType": "address payable",
              "name": "buyer",
              "type": "address"
            },
            {
              "internalType": "uint256",
              "name": "price",
              "type": "uint256"
            },
            {
              "internalType": "uint256",
              "name": "deposit",
              "type": "uint256"
            },
            {
              "internalType": "enum Marketplace.Status",
              "name": "status",
              "type": "uint8"
            },
            {
              "internalType": "string",
              "name": "name",
              "type": "string"
            },
            {
              "internalType": "string",
              "name": "description",
              "type": "string"
            },
            {
              "internalType": "uint256",
              "name": "createdAt",
              "type": "uint256"
            }
          ],
          "internalType": "struct Marketplace.Item",
          "name": "",
          "type": "tuple"
        }
      ],
      "stateMutability": "view",
      "type": "function"
    },
    {
      "inputs": [],
      "name": "getItemCount",
      "outputs": [
        {
          "internalType": "uint256",
          "name": "",
          "type": "uint256"
        }
      ],
      "stateMutability": "view",
      "type": "function"
    },
    {
      "inputs": [
        {
          "internalType": "uint256",
          "name": "",
          "type": "uint256"
        }
      ],
      "name": "items",
      "outputs": [
        {
          "internalType": "uint256",
          "name": "id",
          "type": "uint256"
        },
        {
          "internalType": "address payable",
          "name": "seller",
          "type": "address"
        },
        {
          "internalType": "address payable",
          "name": "buyer",
          "type": "address"
        },
        {
          "internalType": "uint256",
          "name": "price",
          "type": "uint256"
        },
        {
          "internalType": "uint256",
          "name": "deposit",
          "type": "uint256"
        },
        {
          "internalType": "enum Marketplace.Status",
          "name": "status",
          "type": "uint8"
        },
        {
          "internalType": "string",
          "name": "name",
          "type": "string"
        },
        {
          "internalType": "string",
          "name": "description",
          "type": "string"
        },
        {
          "internalType": "uint256",
          "name": "createdAt",
          "type": "uint256"
        }
      ],
      "stateMutability": "view",
      "type": "function"
    },
    {
      "inputs": [
        {
          "internalType": "string",
          "name": "name",
          "type": "string"
        },
        {
          "internalType": "string",
          "name": "description",
          "type": "string"
        },
        {
          "internalType": "uint256",
          "name": "price",
          "type": "uint256"
        },
        {
          "internalType": "uint256",
          "name": "deposit",
          "type": "uint256"
        }
      ],
      "name": "listItem",
      "outputs": [
        {
          "internalType": "uint256",
          "name": "",
          "type": "uint256"
        }
      ],
      "stateMutability": "payable",
      "type": "function"
    },
    {
      "inputs": [],
      "name": "nextItemId",
      "outputs": [
        {
          "internalType": "uint256",
          "name": "",
          "type": "uint256"
        }
      ],
      "stateMutability": "view",
      "type": "function"
    },
    {
      "inputs": [
        {
          "internalType": "uint256",
          "name": "itemId",
          "type": "uint256"
        }
      ],
      "name": "openDispute",
      "outputs": [],
      "stateMutability": "nonpayable",
      "type": "function"
    },
    {
      "inputs": [],
      "name": "owner",
      "outputs": [
        {
          "internalType": "address",
          "name": "",
          "type": "address"
        }
      ],
      "stateMutability": "view",
      "type": "function"
    },
    {
      "inputs": [
        {
          "internalType": "address",
          "name": "",
          "type": "address"
        }
      ],
      "name": "pendingWithdrawals",
      "outputs": [
        {
          "internalType": "uint256",
          "name": "",
          "type": "uint256"
        }
      ],
      "stateMutability": "view",
      "type": "function"
    },
    {
      "inputs": [],
      "name": "platformFee",
      "outputs": [
        {
          "internalType": "uint256",
          "name": "",
          "type": "uint256"
        }
      ],
      "stateMutability": "view",
      "type": "function"
    },
    {
      "inputs": [
        {
          "internalType": "uint256",
          "name": "itemId",
          "type": "uint256"
        }
      ],
      "name": "purchaseItem",
      "outputs": [],
      "stateMutability": "payable",
      "type": "function"
    },
    {
      "inputs": [
        {
          "internalType": "uint256",
          "name": "itemId",
          "type": "uint256"
        },
        {
          "internalType": "bool",
          "name": "buyerWon",
          "type": "bool"
        }
      ],
      "name": "resolveDispute",
      "outputs": [],
      "stateMutability": "nonpayable",
      "type": "function"
    },
    {
      "inputs": [
        {
          "internalType": "address",
          "name": "newArbiter",
          "type": "address"
        }
      ],
      "name": "setArbiter",
      "outputs": [],
      "stateMutability": "nonpayable",
      "type": "function"
    },
    {
      "inputs": [
        {
          "internalType": "uint256",
          "name": "newFee",
          "type": "uint256"
        }
      ],
      "name": "setPlatformFee",
      "outputs": [],
      "stateMutability": "nonpayable",
      "type": "function"
    },
    {
      "inputs": [],
      "name": "totalVolume",
      "outputs": [
        {
          "internalType": "uint256",
          "name": "",
          "type": "uint256"
        }
      ],
      "stateMutability": "view",
      "type": "function"
    },
    {
      "inputs": [],
      "name": "withdrawFees",
      "outputs": [],
      "stateMutability": "nonpayable",
      "type": "function"
    },
    {
      "stateMutability": "payable",
      "type": "receive"
    }
  ],
  "bytecode": "0x60806040523480156200001157600080fd5b5060405162002f8438038062002f8483398181016040528101906200003791906200016c565b336000806101000a81548173ffffffffffffffffffffffffffffffffffffffff021916908373ffffffffffffffffffffffffffffffffffffffff16021790555081600160006101000a81548173ffffffffffffffffffffffffffffffffffffffff021916908373ffffffffffffffffffffffffffffffffffffffff160217905550806002819055505050620001b3565b600080fd5b600073ffffffffffffffffffffffffffffffffffffffff82169050919050565b6000620000f982620000cc565b9050919050565b6200010b81620000ec565b81146200011757600080fd5b50565b6000815190506200012b8162000100565b92915050565b6000819050919050565b620001468162000131565b81146200015257600080fd5b50565b60008151905062000166816200013b565b92915050565b60008060408385031215620001865762000185620000c7565b5b600062000196858286016200011a565b9250506020620001a98582860162000155565b9150509250929050565b612dc180620001c36000396000f3fe60806040526004361061010d5760003560e01c80636a86897411610095578063d38ea5bf11610064578063d38ea5bf1461038f578063ec4ceeea146103ab578063f3f43703146103db578063fd84cb9714610418578063fe25e00a146104415761014d565b80636a868974146102c95780637749cf23146102f45780638da5cb5b1461031f578063bfb231d21461034a5761014d565b8063305a67a8116100dc578063305a67a8146101f85780633129e7731461022157806334b25ee21461025e578063476343ee146102875780635f81a57c1461029e5761014d565b806312e8e2c3146101525780631c9c088a1461017b57806326232a2e146101a457806327d00fb0146101cf5761014d565b3661014d576040517f08c379a0000000000000000000000000000000000000000000000000000000008152600401610144906121f1565b60405180910390fd5b600080fd5b34801561015e57600080fd5b5061017960048036038101906101749190612251565b61046c565b005b34801561018757600080fd5b506101a2600480360381019061019d91906122dc565b610540565b005b3480156101b057600080fd5b506101b9610609565b6040516101c69190612318565b60405180910390f35b3480156101db57600080fd5b506101f660048036038101906101f19190612251565b61060f565b005b34801561020457600080fd5b5061021f600480360381019061021a9190612251565b6108b2565b005b34801561022d57600080fd5b5061024860048036038101906102439190612251565b610b78565b6040516102559190612536565b60405180910390f35b34801561026a57600080fd5b5061028560048036038101906102809190612590565b610dd9565b005b34801561029357600080fd5b5061029c61121a565b005b3480156102aa57600080fd5b506102b36114da565b6040516102c09190612318565b60405180910390f35b3480156102d557600080fd5b506102de6114e0565b6040516102eb9190612318565b60405180910390f35b34801561030057600080fd5b506103096114e6565b6040516103169190612318565b60405180910390f35b34801561032b57600080fd5b506103346114f0565b60405161034191906125df565b60405180910390f35b34801561035657600080fd5b50610371600480360381019061036c9190612251565b611514565b60405161038699989796959493929190612651565b60405180910390f35b6103a960048036038101906103a49190612251565b6116bf565b005b6103c560048036038101906103c09190612751565b61194d565b6040516103d29190612318565b60405180910390f35b3480156103e757600080fd5b5061040260048036038101906103fd91906122dc565b611d24565b60405161040f9190612318565b60405180910390f35b34801561042457600080fd5b5061043f600480360381019061043a9190612251565b611d3c565b005b34801561044d57600080fd5b506104566120e4565b60405161046391906125df565b60405180910390f35b60008054906101000a900473ffffffffffffffffffffffffffffffffffffffff1673ffffffffffffffffffffffffffffffffffffffff163373ffffffffffffffffffffffffffffffffffffffff16146104f1576040517f30cd747100000000000000000000000000000000000000000000000000000000815260040160405180910390fd5b6103e8811115610536576040517f08c379a000000000000000000000000000000000000000000000000000000000815260040161052d90612844565b60405180910390fd5b8060028190555050565b60008054906101000a900473ffffffffffffffffffffffffffffffffffffffff1673ffffffffffffffffffffffffffffffffffffffff163373ffffffffffffffffffffffffffffffffffffffff16146105c5576040517f30cd747100000000000000000000000000000000000000000000000000000000815260040160405180910390fd5b80600160006101000a81548173ffffffffffffffffffffffffffffffffffffffff021916908373ffffffffffffffffffffffffffffffffffffffff16021790555050565b60025481565b806000600560008381526020019081526020016000206000015403610660576040517fd46afe9f00000000000000000000000000000000000000000000000000000000815260040160405180910390fd5b60006005600084815260200190815260200160002090508060010160009054906101000a900473ffffffffffffffffffffffffffffffffffffffff1673ffffffffffffffffffffffffffffffffffffffff163373ffffffffffffffffffffffffffffffffffffffff161415801561072757508060020160009054906101000a900473ffffffffffffffffffffffffffffffffffffffff1673ffffffffffffffffffffffffffffffffffffffff163373ffffffffffffffffffffffffffffffffffffffff1614155b1561075e576040517f5ec8235100000000000000000000000000000000000000000000000000000000815260040160405180910390fd5b6003600581111561077257610771612363565b5b8160050160009054906101000a900460ff16600581111561079657610795612363565b5b036107cd576040517f09dd123600000000000000000000000000000000000000000000000000000000815260040160405180910390fd5b600160058111156107e1576107e0612363565b5b8160050160009054906101000a900460ff16600581111561080557610804612363565b5b1461083c576040517f28a3a3f900000000000000000000000000000000000000000000000000000000815260040160405180910390fd5b60038160050160006101000a81548160ff0219169083600581111561086457610863612363565b5b02179055503373ffffffffffffffffffffffffffffffffffffffff16837f44f3c3ed15c708331582bc379d28659a58f183a563abe41aa4c8889db469f71c60405160405180910390a3505050565b806000600560008381526020019081526020016000206000015403610903576040517fd46afe9f00000000000000000000000000000000000000000000000000000000815260040160405180910390fd5b60006005600084815260200190815260200160002090508060010160009054906101000a900473ffffffffffffffffffffffffffffffffffffffff1673ffffffffffffffffffffffffffffffffffffffff163373ffffffffffffffffffffffffffffffffffffffff16146109a3576040517f5ec8235100000000000000000000000000000000000000000000000000000000815260040160405180910390fd5b600060058111156109b7576109b6612363565b5b8160050160009054906101000a900460ff1660058111156109db576109da612363565b5b14610a12576040517f28a3a3f900000000000000000000000000000000000000000000000000000000815260040160405180910390fd5b60058160050160006101000a81548160ff02191690836005811115610a3a57610a39612363565b5b021790555060008160010160009054906101000a900473ffffffffffffffffffffffffffffffffffffffff1673ffffffffffffffffffffffffffffffffffffffff168260040154604051610a8d90612895565b60006040518083038185875af1925050503d8060008114610aca576040519150601f19603f3d011682016040523d82523d6000602084013e610acf565b606091505b5050905080610b0a576040517f90b8ec1800000000000000000000000000000000000000000000000000000000815260040160405180910390fd5b8160010160009054906101000a900473ffffffffffffffffffffffffffffffffffffffff1673ffffffffffffffffffffffffffffffffffffffff16847fdda0c542ebf9d79262678b7e660a015d15e1e21c518ccd27b3848556961d752160405160405180910390a350505050565b610b8061210a565b6005600083815260200190815260200160002060405180610120016040529081600082015481526020016001820160009054906101000a900473ffffffffffffffffffffffffffffffffffffffff1673ffffffffffffffffffffffffffffffffffffffff1673ffffffffffffffffffffffffffffffffffffffff1681526020016002820160009054906101000a900473ffffffffffffffffffffffffffffffffffffffff1673ffffffffffffffffffffffffffffffffffffffff1673ffffffffffffffffffffffffffffffffffffffff16815260200160038201548152602001600482015481526020016005820160009054906101000a900460ff166005811115610c8e57610c8d612363565b5b6005811115610ca057610c9f612363565b5b8152602001600682018054610cb4906128d9565b80601f0160208091040260200160405190810160405280929190818152602001828054610ce0906128d9565b8015610d2d5780601f10610d0257610100808354040283529160200191610d2d565b820191906000526020600020905b815481529060010190602001808311610d1057829003601f168201915b50505050508152602001600782018054610d46906128d9565b80601f0160208091040260200160405190810160405280929190818152602001828054610d72906128d9565b8015610dbf5780601f10610d9457610100808354040283529160200191610dbf565b820191906000526020600020905b815481529060010190602001808311610da257829003601f168201915b505050505081526020016008820154815250509050919050565b600160009054906101000a900473ffffffffffffffffffffffffffffffffffffffff1673ffffffffffffffffffffffffffffffffffffffff163373ffffffffffffffffffffffffffffffffffffffff1614610e60576040517fe598e3ce00000000000000000000000000000000000000000000000000000000815260040160405180910390fd5b816000600560008381526020019081526020016000206000015403610eb1576040517fd46afe9f00000000000000000000000000000000000000000000000000000000815260040160405180910390fd5b600060056000858152602001908152602001600020905060036005811115610edc57610edb612363565b5b8160050160009054906101000a900460ff166005811115610f0057610eff612363565b5b14610f37576040517f433b0e1400000000000000000000000000000000000000000000000000000000815260040160405180910390fd5b60048160050160006101000a81548160ff02191690836005811115610f5f57610f5e612363565b5b021790555060006127106002548360030154610f7b9190612939565b610f8591906129aa565b90506000818360030154610f9991906129db565b9050600082111561101c5781600660008060009054906101000a900473ffffffffffffffffffffffffffffffffffffffff1673ffffffffffffffffffffffffffffffffffffffff1673ffffffffffffffffffffffffffffffffffffffff16815260200190815260200160002060008282546110149190612a0f565b925050819055505b84156111025760008360020160009054906101000a900473ffffffffffffffffffffffffffffffffffffffff1673ffffffffffffffffffffffffffffffffffffffff16846004015485600301546110739190612a0f565b60405161107f90612895565b60006040518083038185875af1925050503d80600081146110bc576040519150601f19603f3d011682016040523d82523d6000602084013e6110c1565b606091505b50509050806110fc576040517f90b8ec1800000000000000000000000000000000000000000000000000000000815260040160405180910390fd5b506111da565b60008360010160009054906101000a900473ffffffffffffffffffffffffffffffffffffffff1673ffffffffffffffffffffffffffffffffffffffff1684600401548361114f9190612a0f565b60405161115b90612895565b60006040518083038185875af1925050503d8060008114611198576040519150601f19603f3d011682016040523d82523d6000602084013e61119d565b606091505b50509050806111d8576040517f90b8ec1800000000000000000000000000000000000000000000000000000000815260040160405180910390fd5b505b857f5a87909bff68caaaaf0b3fd9c74eeccc928832f879315e5c6fb7a73612f26c0c8660405161120a9190612a52565b60405180910390a2505050505050565b60008054906101000a900473ffffffffffffffffffffffffffffffffffffffff1673ffffffffffffffffffffffffffffffffffffffff163373ffffffffffffffffffffffffffffffffffffffff161461129f576040517f30cd747100000000000000000000000000000000000000000000000000000000815260040160405180910390fd5b6000600660008060009054906101000a900473ffffffffffffffffffffffffffffffffffffffff1673ffffffffffffffffffffffffffffffffffffffff1673ffffffffffffffffffffffffffffffffffffffff1681526020019081526020016000205490506000810361133e576040517fcd1c886700000000000000000000000000000000000000000000000000000000815260040160405180910390fd5b6000600660008060009054906101000a900473ffffffffffffffffffffffffffffffffffffffff1673ffffffffffffffffffffffffffffffffffffffff1673ffffffffffffffffffffffffffffffffffffffff1681526020019081526020016000208190555060008060009054906101000a900473ffffffffffffffffffffffffffffffffffffffff1673ffffffffffffffffffffffffffffffffffffffff16826040516113eb90612895565b60006040518083038185875af1925050503d8060008114611428576040519150601f19603f3d011682016040523d82523d6000602084013e61142d565b606091505b5050905080611468576040517f90b8ec1800000000000000000000000000000000000000000000000000000000815260040160405180910390fd5b60008054906101000a900473ffffffffffffffffffffffffffffffffffffffff1673ffffffffffffffffffffffffffffffffffffffff167feaff4b37086828766ad3268786972c0cd24259d4c87a80f9d3963a3c3d999b0d836040516114ce9190612318565b60405180910390a25050565b60045481565b60035481565b6000600354905090565b60008054906101000a900473ffffffffffffffffffffffffffffffffffffffff1681565b60056020528060005260406000206000915090508060000154908060010160009054906101000a900473ffffffffffffffffffffffffffffffffffffffff16908060020160009054906101000a900473ffffffffffffffffffffffffffffffffffffffff16908060030154908060040154908060050160009054906101000a900460ff16908060060180546115a8906128d9565b80601f01602080910402602001604051908101604052809291908181526020018280546115d4906128d9565b80156116215780601f106115f657610100808354040283529160200191611621565b820191906000526020600020905b81548152906001019060200180831161160457829003601f168201915b505050505090806007018054611636906128d9565b80601f0160208091040260200160405190810160405280929190818152602001828054611662906128d9565b80156116af5780601f10611684576101008083540402835291602001916116af565b820191906000526020600020905b81548152906001019060200180831161169257829003601f168201915b5050505050908060080154905089565b806000600560008381526020019081526020016000206000015403611710576040517fd46afe9f00000000000000000000000000000000000000000000000000000000815260040160405180910390fd5b60006005600084815260200190815260200160002090506000600581111561173b5761173a612363565b5b8160050160009054906101000a900460ff16600581111561175f5761175e612363565b5b14611796576040517f28a3a3f900000000000000000000000000000000000000000000000000000000815260040160405180910390fd5b80600301543410156117d4576040517fcd1c886700000000000000000000000000000000000000000000000000000000815260040160405180910390fd5b338160020160006101000a81548173ffffffffffffffffffffffffffffffffffffffff021916908373ffffffffffffffffffffffffffffffffffffffff16021790555060018160050160006101000a81548160ff0219169083600581111561183f5761183e612363565b5b021790555080600301543411156119045760003373ffffffffffffffffffffffffffffffffffffffff1682600301543461187991906129db565b60405161188590612895565b60006040518083038185875af1925050503d80600081146118c2576040519150601f19603f3d011682016040523d82523d6000602084013e6118c7565b606091505b5050905080611902576040517f90b8ec1800000000000000000000000000000000000000000000000000000000815260040160405180910390fd5b505b3373ffffffffffffffffffffffffffffffffffffffff16837f7ce670ea54227685ed72f8669179c51b47ba2251ce7cfac367725a7b8f9b743d60405160405180910390a3505050565b600081341015611989576040517f0e1eddda00000000000000000000000000000000000000000000000000000000815260040160405180910390fd5b600083036119c3576040517fcd1c886700000000000000000000000000000000000000000000000000000000815260040160405180910390fd5b60006003600081546119d490612a6d565b91905081905590506040518061012001604052808281526020013373ffffffffffffffffffffffffffffffffffffffff168152602001600073ffffffffffffffffffffffffffffffffffffffff16815260200185815260200184815260200160006005811115611a4757611a46612363565b5b815260200189898080601f016020809104026020016040519081016040528093929190818152602001838380828437600081840152601f19601f82011690508083019250505050505050815260200187878080601f016020809104026020016040519081016040528093929190818152602001838380828437600081840152601f19601f82011690508083019250505050505050815260200142815250600560008381526020019081526020016000206000820151816000015560208201518160010160006101000a81548173ffffffffffffffffffffffffffffffffffffffff021916908373ffffffffffffffffffffffffffffffffffffffff16021790555060408201518160020160006101000a81548173ffffffffffffffffffffffffffffffffffffffff021916908373ffffffffffffffffffffffffffffffffffffffff160217905550606082015181600301556080820151816004015560a08201518160050160006101000a81548160ff02191690836005811115611bce57611bcd612363565b5b021790555060c0820151816006019081611be89190612c90565b5060e0820151816007019081611bfe9190612c90565b50610100820151816008015590505082341115611cc55760003373ffffffffffffffffffffffffffffffffffffffff168434611c3a91906129db565b604051611c4690612895565b60006040518083038185875af1925050503d8060008114611c83576040519150601f19603f3d011682016040523d82523d6000602084013e611c88565b606091505b5050905080611cc3576040517f90b8ec1800000000000000000000000000000000000000000000000000000000815260040160405180910390fd5b505b3373ffffffffffffffffffffffffffffffffffffffff16817fb7070c3c377d2fb697e5ddc72b0283eb751116d682ff1cdb579eab77bcc4013b8686604051611d0e929190612d62565b60405180910390a3809150509695505050505050565b60066020528060005260406000206000915090505481565b806000600560008381526020019081526020016000206000015403611d8d576040517fd46afe9f00000000000000000000000000000000000000000000000000000000815260040160405180910390fd5b60006005600084815260200190815260200160002090508060020160009054906101000a900473ffffffffffffffffffffffffffffffffffffffff1673ffffffffffffffffffffffffffffffffffffffff163373ffffffffffffffffffffffffffffffffffffffff1614611e2d576040517f472e017e00000000000000000000000000000000000000000000000000000000815260040160405180910390fd5b60016005811115611e4157611e40612363565b5b8160050160009054906101000a900460ff166005811115611e6557611e64612363565b5b14611e9c576040517f28a3a3f900000000000000000000000000000000000000000000000000000000815260040160405180910390fd5b60028160050160006101000a81548160ff02191690836005811115611ec457611ec3612363565b5b021790555060006127106002548360030154611ee09190612939565b611eea91906129aa565b90506000818360030154611efe91906129db565b9050826003015460046000828254611f169190612a0f565b9250508190555060008360010160009054906101000a900473ffffffffffffffffffffffffffffffffffffffff1673ffffffffffffffffffffffffffffffffffffffff16846004015483611f6a9190612a0f565b604051611f7690612895565b60006040518083038185875af1925050503d8060008114611fb3576040519150601f19603f3d011682016040523d82523d6000602084013e611fb8565b606091505b5050905080611ff3576040517f90b8ec1800000000000000000000000000000000000000000000000000000000815260040160405180910390fd5b60008311156120745782600660008060009054906101000a900473ffffffffffffffffffffffffffffffffffffffff1673ffffffffffffffffffffffffffffffffffffffff1673ffffffffffffffffffffffffffffffffffffffff168152602001908152602001600020600082825461206c9190612a0f565b925050819055505b8360020160009054906101000a900473ffffffffffffffffffffffffffffffffffffffff1673ffffffffffffffffffffffffffffffffffffffff16867fdda0c542ebf9d79262678b7e660a015d15e1e21c518ccd27b3848556961d752160405160405180910390a3505050505050565b600160009054906101000a900473ffffffffffffffffffffffffffffffffffffffff1681565b60405180610120016040528060008152602001600073ffffffffffffffffffffffffffffffffffffffff168152602001600073ffffffffffffffffffffffffffffffffffffffff16815260200160008152602001600081526020016000600581111561217957612178612363565b5b81526020016060815260200160608152602001600081525090565b600082825260208201905092915050565b7f557365206c6973744974656d206f722070757263686173654974656d00000000600082015250565b60006121db601c83612194565b91506121e6826121a5565b602082019050919050565b6000602082019050818103600083015261220a816121ce565b9050919050565b600080fd5b600080fd5b6000819050919050565b61222e8161221b565b811461223957600080fd5b50565b60008135905061224b81612225565b92915050565b60006020828403121561226757612266612211565b5b60006122758482850161223c565b91505092915050565b600073ffffffffffffffffffffffffffffffffffffffff82169050919050565b60006122a98261227e565b9050919050565b6122b98161229e565b81146122c457600080fd5b50565b6000813590506122d6816122b0565b92915050565b6000602082840312156122f2576122f1612211565b5b6000612300848285016122c7565b91505092915050565b6123128161221b565b82525050565b600060208201905061232d6000830184612309565b92915050565b61233c8161221b565b82525050565b600061234d8261227e565b9050919050565b61235d81612342565b82525050565b7f4e487b7100000000000000000000000000000000000000000000000000000000600052602160045260246000fd5b600681106123a3576123a2612363565b5b50565b60008190506123b482612392565b919050565b60006123c4826123a6565b9050919050565b6123d4816123b9565b82525050565b600081519050919050565b600082825260208201905092915050565b60005b838110156124145780820151818401526020810190506123f9565b60008484015250505050565b6000601f19601f8301169050919050565b600061243c826123da565b61244681856123e5565b93506124568185602086016123f6565b61245f81612420565b840191505092915050565b6000610120830160008301516124836000860182612333565b5060208301516124966020860182612354565b5060408301516124a96040860182612354565b5060608301516124bc6060860182612333565b5060808301516124cf6080860182612333565b5060a08301516124e260a08601826123cb565b5060c083015184820360c08601526124fa8282612431565b91505060e083015184820360e08601526125148282612431565b91505061010083015161252b610100860182612333565b508091505092915050565b60006020820190508181036000830152612550818461246a565b905092915050565b60008115159050919050565b61256d81612558565b811461257857600080fd5b50565b60008135905061258a81612564565b92915050565b600080604083850312156125a7576125a6612211565b5b60006125b58582860161223c565b92505060206125c68582860161257b565b9150509250929050565b6125d98161229e565b82525050565b60006020820190506125f460008301846125d0565b92915050565b61260381612342565b82525050565b612612816123b9565b82525050565b6000612623826123da565b61262d8185612194565b935061263d8185602086016123f6565b61264681612420565b840191505092915050565b600061012082019050612667600083018c612309565b612674602083018b6125fa565b612681604083018a6125fa565b61268e6060830189612309565b61269b6080830188612309565b6126a860a0830187612609565b81810360c08301526126ba8186612618565b905081810360e08301526126ce8185612618565b90506126de610100830184612309565b9a9950505050505050505050565b600080fd5b600080fd5b600080fd5b60008083601f840112612711576127106126ec565b5b8235905067ffffffffffffffff81111561272e5761272d6126f1565b5b60208301915083600182028301111561274a576127496126f6565b5b9250929050565b6000806000806000806080878903121561276e5761276d612211565b5b600087013567ffffffffffffffff81111561278c5761278b612216565b5b61279889828a016126fb565b9650965050602087013567ffffffffffffffff8111156127bb576127ba612216565b5b6127c789828a016126fb565b945094505060406127da89828a0161223c565b92505060606127eb89828a0161223c565b9150509295509295509295565b7f4d61782066656520697320313025000000000000000000000000000000000000600082015250565b600061282e600e83612194565b9150612839826127f8565b602082019050919050565b6000602082019050818103600083015261285d81612821565b9050919050565b600081905092915050565b50565b600061287f600083612864565b915061288a8261286f565b600082019050919050565b60006128a082612872565b9150819050919050565b7f4e487b7100000000000000000000000000000000000000000000000000000000600052602260045260246000fd5b600060028204905060018216806128f157607f821691505b602082108103612904576129036128aa565b5b50919050565b7f4e487b7100000000000000000000000000000000000000000000000000000000600052601160045260246000fd5b60006129448261221b565b915061294f8361221b565b925082820261295d8161221b565b915082820484148315176129745761297361290a565b5b5092915050565b7f4e487b7100000000000000000000000000000000000000000000000000000000600052601260045260246000fd5b60006129b58261221b565b91506129c08361221b565b9250826129d0576129cf61297b565b5b828204905092915050565b60006129e68261221b565b91506129f18361221b565b9250828203905081811115612a0957612a0861290a565b5b92915050565b6000612a1a8261221b565b9150612a258361221b565b9250828201905080821115612a3d57612a3c61290a565b5b92915050565b612a4c81612558565b82525050565b6000602082019050612a676000830184612a43565b92915050565b6000612a788261221b565b91507fffffffffffffffffffffffffffffffffffffffffffffffffffffffffffffffff8203612aaa57612aa961290a565b5b600182019050919050565b7f4e487b7100000000000000000000000000000000000000000000000000000000600052604160045260246000fd5b60008190508160005260206000209050919050565b60006020601f8301049050919050565b600082821b905092915050565b600060088302612b467fffffffffffffffffffffffffffffffffffffffffffffffffffffffffffffffff82612b09565b612b508683612b09565b95508019841693508086168417925050509392505050565b6000819050919050565b6000612b8d612b88612b838461221b565b612b68565b61221b565b9050919050565b6000819050919050565b612ba783612b72565b612bbb612bb382612b94565b848454612b16565b825550505050565b600090565b612bd0612bc3565b612bdb818484612b9e565b505050565b5b81811015612bff57612bf4600082612bc8565b600181019050612be1565b5050565b601f821115612c4457612c1581612ae4565b612c1e84612af9565b81016020851015612c2d578190505b612c41612c3985612af9565b830182612be0565b50505b505050565b600082821c905092915050565b6000612c6760001984600802612c49565b1980831691505092915050565b6000612c808383612c56565b9150826002028217905092915050565b612c99826123da565b67ffffffffffffffff811115612cb257612cb1612ab5565b5b612cbc82546128d9565b612cc7828285612c03565b600060209050601f831160018114612cfa5760008415612ce8578287015190505b612cf28582612c74565b865550612d5a565b601f198416612d0886612ae4565b60005b82811015612d3057848901518255600182019150602085019450602081019050612d0b565b86831015612d4d5784890151612d49601f891682612c56565b8355505b6001600288020188555050505b505050505050565b6000604082019050612d776000830185612309565b612d846020830184612309565b939250505056fea2646970667358221220731da46353a3e9a2da8221f55a4ec60642e63b2e3175f91e05fea089e2eb242664736f6c63430008180033",
  "linkReferences": {},
  "deployedLinkReferences": {}
}