{"contracts/TestMath.sol":{"Math":{"abi":[{"inputs":[{"internalType":"uint256","name":"number1","type":"uint256"},{"internalType":"uint256","name":"number2","type":"uint256"}],"name":"add","outputs":[{"internalType":"uint256","name":"","type":"uint256"}],"stateMutability":"nonpayable","type":"function"},{"inputs":[{"internalType":"uint256","name":"number1","type":"uint256"},{"internalType":"uint256","name":"number2","type":"uint256"}],"name":"div","outputs":[{"internalType":"uint256","name":"","type":"uint256"}],"stateMutability":"nonpayable","type":"function"},{"inputs":[],"name":"getSummary","outputs":[{"internalType":"uint256","name":"","type":"uint256"}],"stateMutability":"view","type":"function"},{"inputs":[{"internalType":"uint256","name":"number1","type":"uint256"},{"internalType":"uint256","name":"number2","type":"uint256"}],"name":"min","outputs":[{"internalType":"uint256","name":"","type":"uint256"}],"stateMutability":"nonpayable","type":"function"},{"inputs":[{"internalType":"uint256","name":"number1","type":"uint256"},{"internalType":"uint256","name":"number2","type":"uint256"}],"name":"mul","outputs":[{"internalType":"uint256","name":"","type":"uint256"}],"stateMutability":"nonpayable","type":"function"}],"evm":{"bytecode":{"linkReferences":{},"object":"608060405234801561001057600080fd5b50610407806100206000396000f3fe608060405234801561001057600080fd5b50600436106100575760003560e01c80634051ddac1461005c578063771602f71461007a5780637ae2b5c7146100aa578063a391c15b146100da578063c8a4ac9c1461010a575b600080fd5b61006461013a565b604051610071919061020c565b60405180910390f35b610094600480360381019061008f9190610258565b610143565b6040516100a1919061020c565b60405180910390f35b6100c460048036038101906100bf9190610258565b61016f565b6040516100d1919061020c565b60405180910390f35b6100f460048036038101906100ef9190610258565b61019b565b604051610101919061020c565b60405180910390f35b610124600480360381019061011f9190610258565b6101c7565b604051610131919061020c565b60405180910390f35b60008054905090565b6000818361015191906102c7565b60008082825461016191906102c7565b925050819055905092915050565b6000818361017d91906102fb565b60008082825461018d91906102c7565b925050819055905092915050565b600081836101a9919061035e565b6000808282546101b991906102c7565b925050819055905092915050565b600081836101d5919061038f565b6000808282546101e591906102c7565b925050819055905092915050565b6000819050919050565b610206816101f3565b82525050565b600060208201905061022160008301846101fd565b92915050565b600080fd5b610235816101f3565b811461024057600080fd5b50565b6000813590506102528161022c565b92915050565b6000806040838503121561026f5761026e610227565b5b600061027d85828601610243565b925050602061028e85828601610243565b9150509250929050565b7f4e487b7100000000000000000000000000000000000000000000000000000000600052601160045260246000fd5b60006102d2826101f3565b91506102dd836101f3565b92508282019050808211156102f5576102f4610298565b5b92915050565b6000610306826101f3565b9150610311836101f3565b925082820390508181111561032957610328610298565b5b92915050565b7f4e487b7100000000000000000000000000000000000000000000000000000000600052601260045260246000fd5b6000610369826101f3565b9150610374836101f3565b9250826103845761038361032f565b5b828204905092915050565b600061039a826101f3565b91506103a5836101f3565b92508282026103b3816101f3565b915082820484148315176103ca576103c9610298565b5b509291505056fea26469706673582212202b14d085dc8e75345baa19e2a2862068f33a7e54d07f00886fc57ee55ccf93be64736f6c63430008180033","opcodes":"PUSH1 0x80 PUSH1 0x40 MSTORE CALLVALUE DUP1 ISZERO PUSH2 0x10 JUMPI PUSH1 0x0 DUP1 REVERT JUMPDEST POP PUSH2 0x407 DUP1 PUSH2 0x20 PUSH1 0x0 CODECOPY PUSH1 0x0 RETURN INVALID PUSH1 0x80 PUSH1 0x40 MSTORE CALLVALUE DUP1 ISZERO PUSH2 0x10 JUMPI PUSH1 0x0 DUP1 REVERT JUMPDEST POP PUSH1 0x4 CALLDATASIZE LT PUSH2 0x57 JUMPI PUSH1 0x0 CALLDATALOAD PUSH1 0xE0 SHR DUP1 PUSH4 0x4051DDAC EQ PUSH2 0x5C JUMPI DUP1 PUSH4 0x771602F7 EQ PUSH2 0x7A JUMPI DUP1 PUSH4 0x7AE2B5C7 EQ PUSH2 0xAA JUMPI DUP1 PUSH4 0xA391C15B EQ PUSH2 0xDA JUMPI DUP1 PUSH4 0xC8A4AC9C EQ PUSH2 0x10A JUMPI JUMPDEST PUSH1 0x0 DUP1 REVERT JUMPDEST PUSH2 0x64 PUSH2 0x13A JUMP JUMPDEST PUSH1 0x40 MLOAD PUSH2 0x71 SWAP2 SWAP1 PUSH2 0x20C JUMP JUMPDEST PUSH1 0x40 MLOAD DUP1 SWAP2 SUB SWAP1 RETURN JUMPDEST PUSH2 0x94 PUSH1 0x4 DUP1 CALLDATASIZE SUB DUP2 ADD SWAP1 PUSH2 0x8F SWAP2 SWAP1 PUSH2 0x258 JUMP JUMPDEST PUSH2 0x143 JUMP JUMPDEST PUSH1 0x40 MLOAD PUSH2 0xA1 SWAP2 SWAP1 PUSH2 0x20C JUMP JUMPDEST PUSH1 0x40 MLOAD DUP1 SWAP2 SUB SWAP1 RETURN JUMPDEST PUSH2 0xC4 PUSH1 0x4 DUP1 CALLDATASIZE SUB DUP2 ADD SWAP1 PUSH2 0xBF SWAP2 SWAP1 PUSH2 0x258 JUMP JUMPDEST PUSH2 0x16F JUMP JUMPDEST PUSH1 0x40 MLOAD PUSH2 0xD1 SWAP2 SWAP1 PUSH2 0x20C JUMP JUMPDEST PUSH1 0x40 MLOAD DUP1 SWAP2 SUB SWAP1 RETURN JUMPDEST PUSH2 0xF4 PUSH1 0x4 DUP1 CALLDATASIZE SUB DUP2 ADD SWAP1 PUSH2 0xEF SWAP2 SWAP1 PUSH2 0x258 JUMP JUMPDEST PUSH2 0x19B JUMP JUMPDEST PUSH1 0x40 MLOAD PUSH2 0x101 SWAP2 SWAP1 PUSH2 0x20C JUMP JUMPDEST PUSH1 0x40 MLOAD DUP1 SWAP2 SUB SWAP1 RETURN JUMPDEST PUSH2 0x124 PUSH1 0x4 DUP1 CALLDATASIZE SUB DUP2 ADD SWAP1 PUSH2 0x11F SWAP2 SWAP1 PUSH2 0x258 JUMP JUMPDEST PUSH2 0x1C7 JUMP JUMPDEST PUSH1 0x40 MLOAD PUSH2 0x131 SWAP2 SWAP1 PUSH2 0x20C JUMP JUMPDEST PUSH1 0x40 MLOAD DUP1 SWAP2 SUB SWAP1 RETURN JUMPDEST PUSH1 0x0 DUP1 SLOAD SWAP1 POP SWAP1 JUMP JUMPDEST PUSH1 0x0 DUP2 DUP4 PUSH2 0x151 SWAP2 SWAP1 PUSH2 0x2C7 JUMP JUMPDEST PUSH1 0x0 DUP1 DUP3 DUP3 SLOAD PUSH2 0x161 SWAP2 SWAP1 PUSH2 0x2C7 JUMP JUMPDEST SWAP3 POP POP DUP2 SWAP1 SSTORE SWAP1 POP SWAP3 SWAP2 POP POP JUMP JUMPDEST PUSH1 0x0 DUP2 DUP4 PUSH2 0x17D SWAP2 SWAP1 PUSH2 0x2FB JUMP JUMPDEST PUSH1 0x0 DUP1 DUP3 DUP3 SLOAD PUSH2 0x18D SWAP2 SWAP1 PUSH2 0x2C7 JUMP JUMPDEST SWAP3 POP POP DUP2 SWAP1 SSTORE SWAP1 POP SWAP3 SWAP2 POP POP JUMP JUMPDEST PUSH1 0x0 DUP2 DUP4 PUSH2 0x1A9 SWAP2 SWAP1 PUSH2 0x35E JUMP JUMPDEST PUSH1 0x0 DUP1 DUP3 DUP3 SLOAD PUSH2 0x1B9 SWAP2 SWAP1 PUSH2 0x2C7 JUMP JUMPDEST SWAP3 POP POP DUP2 SWAP1 SSTORE SWAP1 POP SWAP3 SWAP2 POP POP JUMP JUMPDEST PUSH1 0x0 DUP2 DUP4 PUSH2 0x1D5 SWAP2 SWAP1 PUSH2 0x38F JUMP JUMPDEST PUSH1 0x0 DUP1 DUP3 DUP3 SLOAD PUSH2 0x1E5 SWAP2 SWAP1 PUSH2 0x2C7 JUMP JUMPDEST SWAP3 POP POP DUP2 SWAP1 SSTORE SWAP1 POP SWAP3 SWAP2 POP POP JUMP JUMPDEST PUSH1 0x0 DUP2 SWAP1 POP SWAP2 SWAP1 POP JUMP JUMPDEST PUSH2 0x206 DUP2 PUSH2 0x1F3 JUMP JUMPDEST DUP3 MSTORE POP POP JUMP JUMPDEST PUSH1 0x0 PUSH1 0x20 DUP3 ADD SWAP1 POP PUSH2 0x221 PUSH1 0x0 DUP4 ADD DUP5 PUSH2 0x1FD JUMP JUMPDEST SWAP3 SWAP2 POP POP JUMP JUMPDEST PUSH1 0x0 DUP1 REVERT JUMPDEST PUSH2 0x235 DUP2 PUSH2 0x1F3 JUMP JUMPDEST DUP2 EQ PUSH2 0x240 JUMPI PUSH1 0x0 DUP1 REVERT JUMPDEST POP JUMP JUMPDEST PUSH1 0x0 DUP2 CALLDATALOAD SWAP1 POP PUSH2 0x252 DUP2 PUSH2 0x22C JUMP JUMPDEST SWAP3 SWAP2 POP POP JUMP JUMPDEST PUSH1 0x0 DUP1 PUSH1 0x40 DUP4 DUP6 SUB SLT ISZERO PUSH2 0x26F JUMPI PUSH2 0x26E PUSH2 0x227 JUMP JUMPDEST JUMPDEST PUSH1 0x0 PUSH2 0x27D DUP6 DUP3 DUP7 ADD PUSH2 0x243 JUMP JUMPDEST SWAP3 POP POP PUSH1 0x20 PUSH2 0x28E DUP6 DUP3 DUP7 ADD PUSH2 0x243 JUMP JUMPDEST SWAP2 POP POP SWAP3 POP SWAP3 SWAP1 POP JUMP JUMPDEST PUSH32 0x4E487B7100000000000000000000000000000000000000000000000000000000 PUSH1 0x0 MSTORE PUSH1 0x11 PUSH1 0x4 MSTORE PUSH1 0x24 PUSH1 0x0 REVERT JUMPDEST PUSH1 0x0 PUSH2 0x2D2 DUP3 PUSH2 0x1F3 JUMP JUMPDEST SWAP2 POP PUSH2 0x2DD DUP4 PUSH2 0x1F3 JUMP JUMPDEST SWAP3 POP DUP3 DUP3 ADD SWAP1 POP DUP1 DUP3 GT ISZERO PUSH2 0x2F5 JUMPI PUSH2 0x2F4 PUSH2 0x298 JUMP JUMPDEST JUMPDEST SWAP3 SWAP2 POP POP JUMP JUMPDEST PUSH1 0x0 PUSH2 0x306 DUP3 PUSH2 0x1F3 JUMP JUMPDEST SWAP2 POP PUSH2 0x311 DUP4 PUSH2 0x1F3 JUMP JUMPDEST SWAP3 POP DUP3 DUP3 SUB SWAP1 POP DUP2 DUP2 GT ISZERO PUSH2 0x329 JUMPI PUSH2 0x328 PUSH2 0x298 JUMP JUMPDEST JUMPDEST SWAP3 SWAP2 POP POP JUMP JUMPDEST PUSH32 0x4E487B7100000000000000000000000000000000000000000000000000000000 PUSH1 0x0 MSTORE PUSH1 0x12 PUSH1 0x4 MSTORE PUSH1 0x24 PUSH1 0x0 REVERT JUMPDEST PUSH1 0x0 PUSH2 0x369 DUP3 PUSH2 0x1F3 JUMP JUMPDEST SWAP2 POP PUSH2 0x374 DUP4 PUSH2 0x1F3 JUMP JUMPDEST SWAP3 POP DUP3 PUSH2 0x384 JUMPI PUSH2 0x383 PUSH2 0x32F JUMP JUMPDEST JUMPDEST DUP3 DUP3 DIV SWAP1 POP SWAP3 SWAP2 POP POP JUMP JUMPDEST PUSH1 0x0 PUSH2 0x39A DUP3 PUSH2 0x1F3 JUMP JUMPDEST SWAP2 POP PUSH2 0x3A5 DUP4 PUSH2 0x1F3 JUMP JUMPDEST SWAP3 POP DUP3 DUP3 MUL PUSH2 0x3B3 DUP2 PUSH2 0x1F3 JUMP JUMPDEST SWAP2 POP DUP3 DUP3 DIV DUP5 EQ DUP4 ISZERO OR PUSH2 0x3CA JUMPI PUSH2 0x3C9 PUSH2 0x298 JUMP JUMPDEST JUMPDEST POP SWAP3 SWAP2 POP POP JUMP INVALID LOG2 PUSH5 0x6970667358 0x22 SLT KECCAK256 0x2B EQ 0xD0 DUP6 0xDC DUP15 PUSH22 0x345BAA19E2A2862068F33A7E54D07F00886FC57EE55C 0xCF SWAP4 0xBE PUSH5 0x736F6C6343 STOP ADDMOD XOR STOP CALLER "},"methodIdentifiers":{"add(uint256,uint256)":"771602f7","div(uint256,uint256)":"a391c15b","getSummary()":"4051ddac","min(uint256,uint256)":"7ae2b5c7","mul(uint256,uint256)":"c8a4ac9c"}}}}}